{
  "_format": "hh-sol-artifact-1",
  "contractName": "Rifa",
  "sourceName": "contracts/Rifa.sol",
  "abi": [
    {
      "inputs": [
        {
          "internalType": "contract RealDigital",
          "name": "_token",
          "type": "address"
        },
        {
          "internalType": "uint256",
          "name": "_maxEntradas",
          "type": "uint256"
        },
        {
          "internalType": "uint256",
          "name": "_valorEntrada",
          "type": "uint256"
        }
      ],
      "stateMutability": "nonpayable",
      "type": "constructor"
    },
    {
      "inputs": [
        {
          "internalType": "uint256",
          "name": "",
          "type": "uint256"
        }
      ],
      "name": "entradas",
      "outputs": [
        {
          "internalType": "address",
          "name": "",
          "type": "address"
        }
      ],
      "stateMutability": "view",
      "type": "function"
    },
    {
      "inputs": [
        {
          "internalType": "uint256",
          "name": "quantidadeTokens",
          "type": "uint256"
        }
      ],
      "name": "entrar",
      "outputs": [],
      "stateMutability": "nonpayable",
      "type": "function"
    },
    {
      "inputs": [],
      "name": "escolherVencedor",
      "outputs": [],
      "stateMutability": "nonpayable",
      "type": "function"
    },
    {
      "inputs": [],
      "name": "getEntradas",
      "outputs": [
        {
          "internalType": "address[]",
          "name": "",
          "type": "address[]"
        }
      ],
      "stateMutability": "view",
      "type": "function"
    },
    {
      "inputs": [],
      "name": "getSorteado",
      "outputs": [
        {
          "internalType": "bool",
          "name": "",
          "type": "bool"
        }
      ],
      "stateMutability": "view",
      "type": "function"
    },
    {
      "inputs": [],
      "name": "len",
      "outputs": [
        {
          "internalType": "uint256",
          "name": "",
          "type": "uint256"
        }
      ],
      "stateMutability": "view",
      "type": "function"
    },
    {
      "inputs": [],
      "name": "manager",
      "outputs": [
        {
          "internalType": "address",
          "name": "",
          "type": "address"
        }
      ],
      "stateMutability": "view",
      "type": "function"
    },
    {
      "inputs": [],
      "name": "maxEntradas",
      "outputs": [
        {
          "internalType": "uint256",
          "name": "",
          "type": "uint256"
        }
      ],
      "stateMutability": "view",
      "type": "function"
    },
    {
      "inputs": [],
      "name": "numEntradas",
      "outputs": [
        {
          "internalType": "uint256",
          "name": "",
          "type": "uint256"
        }
      ],
      "stateMutability": "view",
      "type": "function"
    },
    {
      "inputs": [],
      "name": "restEntradas",
      "outputs": [
        {
          "internalType": "uint256",
          "name": "",
          "type": "uint256"
        }
      ],
      "stateMutability": "view",
      "type": "function"
    },
    {
      "inputs": [],
      "name": "sorteado",
      "outputs": [
        {
          "internalType": "bool",
          "name": "",
          "type": "bool"
        }
      ],
      "stateMutability": "view",
      "type": "function"
    },
    {
      "inputs": [],
      "name": "token",
      "outputs": [
        {
          "internalType": "contract RealDigital",
          "name": "",
          "type": "address"
        }
      ],
      "stateMutability": "view",
      "type": "function"
    },
    {
      "inputs": [],
      "name": "valorEntrada",
      "outputs": [
        {
          "internalType": "uint256",
          "name": "",
          "type": "uint256"
        }
      ],
      "stateMutability": "view",
      "type": "function"
    },
    {
      "inputs": [],
      "name": "vencedor",
      "outputs": [
        {
          "internalType": "address",
          "name": "",
          "type": "address"
        }
      ],
      "stateMutability": "view",
      "type": "function"
    }
  ],
  "bytecode": "0x60806040523480156200001157600080fd5b5060405162001712380380620017128339818101604052810190620000379190620001ac565b336000806101000a81548173ffffffffffffffffffffffffffffffffffffffff021916908373ffffffffffffffffffffffffffffffffffffffff16021790555082600860006101000a81548173ffffffffffffffffffffffffffffffffffffffff021916908373ffffffffffffffffffffffffffffffffffffffff1602179055506000600260006101000a81548160ff021916908315150217905550816004819055506004546005819055508060068190555050505062000208565b600080fd5b600073ffffffffffffffffffffffffffffffffffffffff82169050919050565b60006200012582620000f8565b9050919050565b6000620001398262000118565b9050919050565b6200014b816200012c565b81146200015757600080fd5b50565b6000815190506200016b8162000140565b92915050565b6000819050919050565b620001868162000171565b81146200019257600080fd5b50565b600081519050620001a6816200017b565b92915050565b600080600060608486031215620001c857620001c7620000f3565b5b6000620001d8868287016200015a565b9350506020620001eb8682870162000195565b9250506040620001fe8682870162000195565b9150509250925092565b6114fa80620002186000396000f3fe608060405234801561001057600080fd5b50600436106100ea5760003560e01c80639974da361161008c578063abda8f9511610066578063abda8f9514610217578063b181606214610235578063b24733e314610253578063fc0c546a14610271576100ea565b80639974da36146101bd5780639f2b10a7146101db578063ab9f0312146101f9576100ea565b80632e1cf51d116100c85780632e1cf51d14610147578063481c6a751461016557806356d88e27146101835780636de5b239146101a1576100ea565b806304b2a798146100ef5780630ce65e881461010d5780631d4ab54014610117575b600080fd5b6100f761028f565b6040516101049190610acc565b60405180910390f35b6101156102a6565b005b610131600480360381019061012c9190610b22565b610627565b60405161013e9190610b90565b60405180910390f35b61014f610666565b60405161015c9190610bba565b60405180910390f35b61016d61066c565b60405161017a9190610b90565b60405180910390f35b61018b610690565b6040516101989190610bba565b60405180910390f35b6101bb60048036038101906101b69190610b22565b610696565b005b6101c561097c565b6040516101d29190610b90565b60405180910390f35b6101e36109a2565b6040516101f09190610bba565b60405180910390f35b6102016109a8565b60405161020e9190610bba565b60405180910390f35b61021f6109ae565b60405161022c9190610bba565b60405180910390f35b61023d6109b4565b60405161024a9190610c93565b60405180910390f35b61025b610a42565b6040516102689190610acc565b60405180910390f35b610279610a55565b6040516102869190610d14565b60405180910390f35b6000600260009054906101000a900460ff16905090565b60008054906101000a900473ffffffffffffffffffffffffffffffffffffffff1673ffffffffffffffffffffffffffffffffffffffff163373ffffffffffffffffffffffffffffffffffffffff1614610334576040517f08c379a000000000000000000000000000000000000000000000000000000000815260040161032b90610db2565b60405180910390fd5b60006001805490501161037c576040517f08c379a000000000000000000000000000000000000000000000000000000000815260040161037390610e1e565b60405180910390fd5b600260009054906101000a900460ff16156103cc576040517f08c379a00000000000000000000000000000000000000000000000000000000081526004016103c390610e8a565b60405180910390fd5b60006001805490506103dc610a7b565b6103e69190610ed9565b9050600181815481106103fc576103fb610f0a565b5b9060005260206000200160009054906101000a900473ffffffffffffffffffffffffffffffffffffffff16600260016101000a81548173ffffffffffffffffffffffffffffffffffffffff021916908373ffffffffffffffffffffffffffffffffffffffff1602179055506000600860009054906101000a900473ffffffffffffffffffffffffffffffffffffffff1673ffffffffffffffffffffffffffffffffffffffff166370a08231306040518263ffffffff1660e01b81526004016104c49190610b90565b602060405180830381865afa1580156104e1573d6000803e3d6000fd5b505050506040513d601f19601f820116820180604052508101906105059190610f4e565b9050600860009054906101000a900473ffffffffffffffffffffffffffffffffffffffff1673ffffffffffffffffffffffffffffffffffffffff1663a9059cbb600260019054906101000a900473ffffffffffffffffffffffffffffffffffffffff16836040518363ffffffff1660e01b8152600401610586929190610f7b565b6020604051808303816000875af11580156105a5573d6000803e3d6000fd5b505050506040513d601f19601f820116820180604052508101906105c99190610fd0565b610608576040517f08c379a00000000000000000000000000000000000000000000000000000000081526004016105ff90611049565b60405180910390fd5b6001600260006101000a81548160ff0219169083151502179055505050565b6001818154811061063757600080fd5b906000526020600020016000915054906101000a900473ffffffffffffffffffffffffffffffffffffffff1681565b60045481565b60008054906101000a900473ffffffffffffffffffffffffffffffffffffffff1681565b60035481565b600260009054906101000a900460ff16156106e6576040517f08c379a00000000000000000000000000000000000000000000000000000000081526004016106dd906110b5565b60405180910390fd5b60006005541161072b576040517f08c379a000000000000000000000000000000000000000000000000000000000815260040161072290611121565b60405180910390fd5b600260009054906101000a900460ff161561077b576040517f08c379a0000000000000000000000000000000000000000000000000000000008152600401610772906110b5565b60405180910390fd5b6006548110156107c0576040517f08c379a00000000000000000000000000000000000000000000000000000000081526004016107b7906111b3565b60405180910390fd5b600654816107ce9190611202565b60078190555060055460075411156107ea576005546007819055505b60006006546007546107fc9190611233565b9050600860009054906101000a900473ffffffffffffffffffffffffffffffffffffffff1673ffffffffffffffffffffffffffffffffffffffff166323b872dd3330846040518463ffffffff1660e01b815260040161085d93929190611275565b6020604051808303816000875af115801561087c573d6000803e3d6000fd5b505050506040513d601f19601f820116820180604052508101906108a09190610fd0565b6108df576040517f08c379a00000000000000000000000000000000000000000000000000000000081526004016108d6906112f8565b60405180910390fd5b60005b60075481101561095c576001339080600181540180825580915050600190039060005260206000200160009091909190916101000a81548173ffffffffffffffffffffffffffffffffffffffff021916908373ffffffffffffffffffffffffffffffffffffffff16021790555080806001019150506108e2565b50600754600560008282546109719190611318565b925050819055505050565b600260019054906101000a900473ffffffffffffffffffffffffffffffffffffffff1681565b60075481565b60055481565b60065481565b60606001805480602002602001604051908101604052809291908181526020018280548015610a3857602002820191906000526020600020905b8160009054906101000a900473ffffffffffffffffffffffffffffffffffffffff1673ffffffffffffffffffffffffffffffffffffffff16815260200190600101908083116109ee575b5050505050905090565b600260009054906101000a900460ff1681565b600860009054906101000a900473ffffffffffffffffffffffffffffffffffffffff1681565b600044426001604051602001610a939392919061148b565b6040516020818303038152906040528051906020012060001c905090565b60008115159050919050565b610ac681610ab1565b82525050565b6000602082019050610ae16000830184610abd565b92915050565b600080fd5b6000819050919050565b610aff81610aec565b8114610b0a57600080fd5b50565b600081359050610b1c81610af6565b92915050565b600060208284031215610b3857610b37610ae7565b5b6000610b4684828501610b0d565b91505092915050565b600073ffffffffffffffffffffffffffffffffffffffff82169050919050565b6000610b7a82610b4f565b9050919050565b610b8a81610b6f565b82525050565b6000602082019050610ba56000830184610b81565b92915050565b610bb481610aec565b82525050565b6000602082019050610bcf6000830184610bab565b92915050565b600081519050919050565b600082825260208201905092915050565b6000819050602082019050919050565b610c0a81610b6f565b82525050565b6000610c1c8383610c01565b60208301905092915050565b6000602082019050919050565b6000610c4082610bd5565b610c4a8185610be0565b9350610c5583610bf1565b8060005b83811015610c86578151610c6d8882610c10565b9750610c7883610c28565b925050600181019050610c59565b5085935050505092915050565b60006020820190508181036000830152610cad8184610c35565b905092915050565b6000819050919050565b6000610cda610cd5610cd084610b4f565b610cb5565b610b4f565b9050919050565b6000610cec82610cbf565b9050919050565b6000610cfe82610ce1565b9050919050565b610d0e81610cf3565b82525050565b6000602082019050610d296000830184610d05565b92915050565b600082825260208201905092915050565b7f4170656e6173206f20676572656e746520706f6465206368616d61722065737460008201527f612066756e63616f000000000000000000000000000000000000000000000000602082015250565b6000610d9c602883610d2f565b9150610da782610d40565b604082019050919050565b60006020820190508181036000830152610dcb81610d8f565b9050919050565b7f4e656e68756d6120656e7472616461206e612072696661000000000000000000600082015250565b6000610e08601783610d2f565b9150610e1382610dd2565b602082019050919050565b60006020820190508181036000830152610e3781610dfb565b9050919050565b7f536f727465696f206a61207265616c697a61646f000000000000000000000000600082015250565b6000610e74601483610d2f565b9150610e7f82610e3e565b602082019050919050565b60006020820190508181036000830152610ea381610e67565b9050919050565b7f4e487b7100000000000000000000000000000000000000000000000000000000600052601260045260246000fd5b6000610ee482610aec565b9150610eef83610aec565b925082610eff57610efe610eaa565b5b828206905092915050565b7f4e487b7100000000000000000000000000000000000000000000000000000000600052603260045260246000fd5b600081519050610f4881610af6565b92915050565b600060208284031215610f6457610f63610ae7565b5b6000610f7284828501610f39565b91505092915050565b6000604082019050610f906000830185610b81565b610f9d6020830184610bab565b9392505050565b610fad81610ab1565b8114610fb857600080fd5b50565b600081519050610fca81610fa4565b92915050565b600060208284031215610fe657610fe5610ae7565b5b6000610ff484828501610fbb565b91505092915050565b7f5472616e73666572656e63696120646f207072656d696f2066616c686f750000600082015250565b6000611033601e83610d2f565b915061103e82610ffd565b602082019050919050565b6000602082019050818103600083015261106281611026565b9050919050565b7f4f20736f727465696f206a6120666f69207265616c697a61646f000000000000600082015250565b600061109f601a83610d2f565b91506110aa82611069565b602082019050919050565b600060208201905081810360008301526110ce81611092565b9050919050565b7f4e616f20686120656e74726164617320646973706f6e69766569730000000000600082015250565b600061110b601b83610d2f565b9150611116826110d5565b602082019050919050565b6000602082019050818103600083015261113a816110fe565b9050919050565b7f5175616e746964616465206d696e696d6120646520746f6b656e73206e616f2060008201527f6174696e67696461000000000000000000000000000000000000000000000000602082015250565b600061119d602883610d2f565b91506111a882611141565b604082019050919050565b600060208201905081810360008301526111cc81611190565b9050919050565b7f4e487b7100000000000000000000000000000000000000000000000000000000600052601160045260246000fd5b600061120d82610aec565b915061121883610aec565b92508261122857611227610eaa565b5b828204905092915050565b600061123e82610aec565b915061124983610aec565b925082820261125781610aec565b9150828204841483151761126e5761126d6111d3565b5b5092915050565b600060608201905061128a6000830186610b81565b6112976020830185610b81565b6112a46040830184610bab565b949350505050565b7f5472616e73666572656e63696120646520746f6b656e732066616c686f750000600082015250565b60006112e2601e83610d2f565b91506112ed826112ac565b602082019050919050565b60006020820190508181036000830152611311816112d5565b9050919050565b600061132382610aec565b915061132e83610aec565b9250828203905081811115611346576113456111d3565b5b92915050565b6000819050919050565b61136761136282610aec565b61134c565b82525050565b600081549050919050565b600081905092915050565b60008190508160005260206000209050919050565b6113a181610b6f565b82525050565b60006113b38383611398565b60208301905092915050565b60008160001c9050919050565b600073ffffffffffffffffffffffffffffffffffffffff82169050919050565b60006113ff6113fa836113bf565b6113cc565b9050919050565b600061141282546113ec565b9050919050565b6000600182019050919050565b60006114318261136d565b61143b8185611378565b935061144683611383565b8060005b8381101561147e5761145b82611406565b61146588826113a7565b975061147083611419565b92505060018101905061144a565b5085935050505092915050565b60006114978286611356565b6020820191506114a78285611356565b6020820191506114b78284611426565b915081905094935050505056fea2646970667358221220ae9fe8b0d127f76c08086e7f9df33f8ee8335b160f6b40ddd2f7561420d28a7064736f6c63430008180033",
  "linkReferences": {},
  "deployedLinkReferences": {}
}