{
  "_format": "hh-sol-artifact-1",
  "contractName": "Rifa",
  "sourceName": "contracts/Rifa.sol",
  "abi": [
    {
      "inputs": [
        {
          "internalType": "contract RealDigital",
          "name": "_token",
          "type": "address"
        },
        {
          "internalType": "uint256",
          "name": "_maxEntradas",
          "type": "uint256"
        },
        {
          "internalType": "uint256",
          "name": "_valorEntrada",
          "type": "uint256"
        }
      ],
      "stateMutability": "nonpayable",
      "type": "constructor"
    },
    {
      "inputs": [
        {
          "internalType": "uint256",
          "name": "",
          "type": "uint256"
        }
      ],
      "name": "entradas",
      "outputs": [
        {
          "internalType": "address",
          "name": "",
          "type": "address"
        }
      ],
      "stateMutability": "view",
      "type": "function"
    },
    {
      "inputs": [
        {
          "internalType": "uint256",
          "name": "quantidadeTokens",
          "type": "uint256"
        }
      ],
      "name": "entrar",
      "outputs": [],
      "stateMutability": "nonpayable",
      "type": "function"
    },
    {
      "inputs": [],
      "name": "getEntradas",
      "outputs": [
        {
          "internalType": "address[]",
          "name": "",
          "type": "address[]"
        }
      ],
      "stateMutability": "view",
      "type": "function"
    },
    {
      "inputs": [],
      "name": "getSorteado",
      "outputs": [
        {
          "internalType": "bool",
          "name": "",
          "type": "bool"
        }
      ],
      "stateMutability": "view",
      "type": "function"
    },
    {
      "inputs": [],
      "name": "len",
      "outputs": [
        {
          "internalType": "uint256",
          "name": "",
          "type": "uint256"
        }
      ],
      "stateMutability": "view",
      "type": "function"
    },
    {
      "inputs": [],
      "name": "manager",
      "outputs": [
        {
          "internalType": "address",
          "name": "",
          "type": "address"
        }
      ],
      "stateMutability": "view",
      "type": "function"
    },
    {
      "inputs": [],
      "name": "maxEntradas",
      "outputs": [
        {
          "internalType": "uint256",
          "name": "",
          "type": "uint256"
        }
      ],
      "stateMutability": "view",
      "type": "function"
    },
    {
      "inputs": [],
      "name": "numEntradas",
      "outputs": [
        {
          "internalType": "uint256",
          "name": "",
          "type": "uint256"
        }
      ],
      "stateMutability": "view",
      "type": "function"
    },
    {
      "inputs": [],
      "name": "premio",
      "outputs": [
        {
          "internalType": "uint256",
          "name": "",
          "type": "uint256"
        }
      ],
      "stateMutability": "view",
      "type": "function"
    },
    {
      "inputs": [],
      "name": "restEntradas",
      "outputs": [
        {
          "internalType": "uint256",
          "name": "",
          "type": "uint256"
        }
      ],
      "stateMutability": "view",
      "type": "function"
    },
    {
      "inputs": [],
      "name": "sorteado",
      "outputs": [
        {
          "internalType": "bool",
          "name": "",
          "type": "bool"
        }
      ],
      "stateMutability": "view",
      "type": "function"
    },
    {
      "inputs": [],
      "name": "token",
      "outputs": [
        {
          "internalType": "contract RealDigital",
          "name": "",
          "type": "address"
        }
      ],
      "stateMutability": "view",
      "type": "function"
    },
    {
      "inputs": [],
      "name": "valorEntrada",
      "outputs": [
        {
          "internalType": "uint256",
          "name": "",
          "type": "uint256"
        }
      ],
      "stateMutability": "view",
      "type": "function"
    },
    {
      "inputs": [],
      "name": "vencedor",
      "outputs": [
        {
          "internalType": "address",
          "name": "",
          "type": "address"
        }
      ],
      "stateMutability": "view",
      "type": "function"
    }
  ],
  "bytecode": "0x60806040523480156200001157600080fd5b5060405162001497380380620014978339818101604052810190620000379190620001ac565b336000806101000a81548173ffffffffffffffffffffffffffffffffffffffff021916908373ffffffffffffffffffffffffffffffffffffffff16021790555082600960006101000a81548173ffffffffffffffffffffffffffffffffffffffff021916908373ffffffffffffffffffffffffffffffffffffffff1602179055506000600360006101000a81548160ff021916908315150217905550816005819055506005546006819055508060078190555050505062000208565b600080fd5b600073ffffffffffffffffffffffffffffffffffffffff82169050919050565b60006200012582620000f8565b9050919050565b6000620001398262000118565b9050919050565b6200014b816200012c565b81146200015757600080fd5b50565b6000815190506200016b8162000140565b92915050565b6000819050919050565b620001868162000171565b81146200019257600080fd5b50565b600081519050620001a6816200017b565b92915050565b600080600060608486031215620001c857620001c7620000f3565b5b6000620001d8868287016200015a565b9350506020620001eb8682870162000195565b9250506040620001fe8682870162000195565b9150509250925092565b61127f80620002186000396000f3fe608060405234801561001057600080fd5b50600436106100ea5760003560e01c80639974da361161008c578063abda8f9511610066578063abda8f951461022b578063b181606214610249578063b24733e314610267578063fc0c546a14610285576100ea565b80639974da36146101d15780639f2b10a7146101ef578063ab9f03121461020d576100ea565b8063481c6a75116100c8578063481c6a751461015b57806350237f721461017957806356d88e27146101975780636de5b239146101b5576100ea565b806304b2a798146100ef5780631d4ab5401461010d5780632e1cf51d1461013d575b600080fd5b6100f76102a3565b604051610104919061095d565b60405180910390f35b610127600480360381019061012291906109b3565b6102ba565b6040516101349190610a21565b60405180910390f35b6101456102f9565b6040516101529190610a4b565b60405180910390f35b6101636102ff565b6040516101709190610a21565b60405180910390f35b610181610323565b60405161018e9190610a4b565b60405180910390f35b61019f610329565b6040516101ac9190610a4b565b60405180910390f35b6101cf60048036038101906101ca91906109b3565b61032f565b005b6101d96105b9565b6040516101e69190610a21565b60405180910390f35b6101f76105df565b6040516102049190610a4b565b60405180910390f35b6102156105e5565b6040516102229190610a4b565b60405180910390f35b6102336105eb565b6040516102409190610a4b565b60405180910390f35b6102516105f1565b60405161025e9190610b24565b60405180910390f35b61026f61067f565b60405161027c919061095d565b60405180910390f35b61028d610692565b60405161029a9190610ba5565b60405180910390f35b6000600360009054906101000a900460ff16905090565b600181815481106102ca57600080fd5b906000526020600020016000915054906101000a900473ffffffffffffffffffffffffffffffffffffffff1681565b60055481565b60008054906101000a900473ffffffffffffffffffffffffffffffffffffffff1681565b60025481565b60045481565b600360009054906101000a900460ff161561037f576040517f08c379a000000000000000000000000000000000000000000000000000000000815260040161037690610c1d565b60405180910390fd5b6007548110156103c4576040517f08c379a00000000000000000000000000000000000000000000000000000000081526004016103bb90610caf565b60405180910390fd5b600754816103d29190610d2d565b60088190555060065460085411156103ee576006546008819055505b60006007546008546104009190610d5e565b9050600960009054906101000a900473ffffffffffffffffffffffffffffffffffffffff1673ffffffffffffffffffffffffffffffffffffffff166323b872dd3330846040518463ffffffff1660e01b815260040161046193929190610da0565b6020604051808303816000875af1158015610480573d6000803e3d6000fd5b505050506040513d601f19601f820116820180604052508101906104a49190610e03565b6104e3576040517f08c379a00000000000000000000000000000000000000000000000000000000081526004016104da90610e7c565b60405180910390fd5b60005b600854811015610560576001339080600181540180825580915050600190039060005260206000200160009091909190916101000a81548173ffffffffffffffffffffffffffffffffffffffff021916908373ffffffffffffffffffffffffffffffffffffffff16021790555080806001019150506104e6565b5080600260008282546105739190610e9c565b925050819055506001805490506004819055506008546006600082825461059a9190610ed0565b92505081905550600554600454106105b5576105b46106b8565b5b5050565b600360019054906101000a900473ffffffffffffffffffffffffffffffffffffffff1681565b60085481565b60065481565b60075481565b6060600180548060200260200160405190810160405280929190818152602001828054801561067557602002820191906000526020600020905b8160009054906101000a900473ffffffffffffffffffffffffffffffffffffffff1673ffffffffffffffffffffffffffffffffffffffff168152602001906001019080831161062b575b5050505050905090565b600360009054906101000a900460ff1681565b600960009054906101000a900473ffffffffffffffffffffffffffffffffffffffff1681565b600060018054905011610700576040517f08c379a00000000000000000000000000000000000000000000000000000000081526004016106f790610f50565b60405180910390fd5b600360009054906101000a900460ff1615610750576040517f08c379a000000000000000000000000000000000000000000000000000000000815260040161074790610fbc565b60405180910390fd5b600060018054905061076061090c565b61076a9190610fdc565b9050600181815481106107805761077f61100d565b5b9060005260206000200160009054906101000a900473ffffffffffffffffffffffffffffffffffffffff16600360016101000a81548173ffffffffffffffffffffffffffffffffffffffff021916908373ffffffffffffffffffffffffffffffffffffffff160217905550600960009054906101000a900473ffffffffffffffffffffffffffffffffffffffff1673ffffffffffffffffffffffffffffffffffffffff1663a9059cbb600360019054906101000a900473ffffffffffffffffffffffffffffffffffffffff166002546040518363ffffffff1660e01b815260040161086c92919061103c565b6020604051808303816000875af115801561088b573d6000803e3d6000fd5b505050506040513d601f19601f820116820180604052508101906108af9190610e03565b6108ee576040517f08c379a00000000000000000000000000000000000000000000000000000000081526004016108e5906110b1565b60405180910390fd5b6001600360006101000a81548160ff02191690831515021790555050565b60004442600160405160200161092493929190611210565b6040516020818303038152906040528051906020012060001c905090565b60008115159050919050565b61095781610942565b82525050565b6000602082019050610972600083018461094e565b92915050565b600080fd5b6000819050919050565b6109908161097d565b811461099b57600080fd5b50565b6000813590506109ad81610987565b92915050565b6000602082840312156109c9576109c8610978565b5b60006109d78482850161099e565b91505092915050565b600073ffffffffffffffffffffffffffffffffffffffff82169050919050565b6000610a0b826109e0565b9050919050565b610a1b81610a00565b82525050565b6000602082019050610a366000830184610a12565b92915050565b610a458161097d565b82525050565b6000602082019050610a606000830184610a3c565b92915050565b600081519050919050565b600082825260208201905092915050565b6000819050602082019050919050565b610a9b81610a00565b82525050565b6000610aad8383610a92565b60208301905092915050565b6000602082019050919050565b6000610ad182610a66565b610adb8185610a71565b9350610ae683610a82565b8060005b83811015610b17578151610afe8882610aa1565b9750610b0983610ab9565b925050600181019050610aea565b5085935050505092915050565b60006020820190508181036000830152610b3e8184610ac6565b905092915050565b6000819050919050565b6000610b6b610b66610b61846109e0565b610b46565b6109e0565b9050919050565b6000610b7d82610b50565b9050919050565b6000610b8f82610b72565b9050919050565b610b9f81610b84565b82525050565b6000602082019050610bba6000830184610b96565b92915050565b600082825260208201905092915050565b7f4f20736f727465696f206a6120666f69207265616c697a61646f000000000000600082015250565b6000610c07601a83610bc0565b9150610c1282610bd1565b602082019050919050565b60006020820190508181036000830152610c3681610bfa565b9050919050565b7f5175616e746964616465206d696e696d6120646520746f6b656e73206e616f2060008201527f6174696e67696461000000000000000000000000000000000000000000000000602082015250565b6000610c99602883610bc0565b9150610ca482610c3d565b604082019050919050565b60006020820190508181036000830152610cc881610c8c565b9050919050565b7f4e487b7100000000000000000000000000000000000000000000000000000000600052601260045260246000fd5b7f4e487b7100000000000000000000000000000000000000000000000000000000600052601160045260246000fd5b6000610d388261097d565b9150610d438361097d565b925082610d5357610d52610ccf565b5b828204905092915050565b6000610d698261097d565b9150610d748361097d565b9250828202610d828161097d565b91508282048414831517610d9957610d98610cfe565b5b5092915050565b6000606082019050610db56000830186610a12565b610dc26020830185610a12565b610dcf6040830184610a3c565b949350505050565b610de081610942565b8114610deb57600080fd5b50565b600081519050610dfd81610dd7565b92915050565b600060208284031215610e1957610e18610978565b5b6000610e2784828501610dee565b91505092915050565b7f5472616e73666572656e63696120646520746f6b656e732066616c686f750000600082015250565b6000610e66601e83610bc0565b9150610e7182610e30565b602082019050919050565b60006020820190508181036000830152610e9581610e59565b9050919050565b6000610ea78261097d565b9150610eb28361097d565b9250828201905080821115610eca57610ec9610cfe565b5b92915050565b6000610edb8261097d565b9150610ee68361097d565b9250828203905081811115610efe57610efd610cfe565b5b92915050565b7f4e656e68756d6120656e7472616461206e612072696661000000000000000000600082015250565b6000610f3a601783610bc0565b9150610f4582610f04565b602082019050919050565b60006020820190508181036000830152610f6981610f2d565b9050919050565b7f536f727465696f206a61207265616c697a61646f000000000000000000000000600082015250565b6000610fa6601483610bc0565b9150610fb182610f70565b602082019050919050565b60006020820190508181036000830152610fd581610f99565b9050919050565b6000610fe78261097d565b9150610ff28361097d565b92508261100257611001610ccf565b5b828206905092915050565b7f4e487b7100000000000000000000000000000000000000000000000000000000600052603260045260246000fd5b60006040820190506110516000830185610a12565b61105e6020830184610a3c565b9392505050565b7f5472616e73666572656e63696120646f207072656d696f2066616c686f750000600082015250565b600061109b601e83610bc0565b91506110a682611065565b602082019050919050565b600060208201905081810360008301526110ca8161108e565b9050919050565b6000819050919050565b6110ec6110e78261097d565b6110d1565b82525050565b600081549050919050565b600081905092915050565b60008190508160005260206000209050919050565b61112681610a00565b82525050565b6000611138838361111d565b60208301905092915050565b60008160001c9050919050565b600073ffffffffffffffffffffffffffffffffffffffff82169050919050565b600061118461117f83611144565b611151565b9050919050565b60006111978254611171565b9050919050565b6000600182019050919050565b60006111b6826110f2565b6111c081856110fd565b93506111cb83611108565b8060005b83811015611203576111e08261118b565b6111ea888261112c565b97506111f58361119e565b9250506001810190506111cf565b5085935050505092915050565b600061121c82866110db565b60208201915061122c82856110db565b60208201915061123c82846111ab565b915081905094935050505056fea264697066735822122046ff39b9fbdc9d00516fa75943aa2e8e7116ac2d74b54a931d7db4e0adec9a5764736f6c63430008180033",
  "linkReferences": {},
  "deployedLinkReferences": {}
}