{
  "_format": "hh-sol-artifact-1",
  "contractName": "Rifa",
  "sourceName": "contracts/Rifa.sol",
  "abi": [
    {
      "inputs": [
        {
          "internalType": "uint256",
          "name": "_maxEntradas",
          "type": "uint256"
        }
      ],
      "stateMutability": "nonpayable",
      "type": "constructor"
    },
    {
      "inputs": [
        {
          "internalType": "uint256",
          "name": "",
          "type": "uint256"
        }
      ],
      "name": "entradas",
      "outputs": [
        {
          "internalType": "address",
          "name": "",
          "type": "address"
        }
      ],
      "stateMutability": "view",
      "type": "function"
    },
    {
      "inputs": [],
      "name": "entrar",
      "outputs": [],
      "stateMutability": "payable",
      "type": "function"
    },
    {
      "inputs": [],
      "name": "getEntradas",
      "outputs": [
        {
          "internalType": "address[]",
          "name": "",
          "type": "address[]"
        }
      ],
      "stateMutability": "view",
      "type": "function"
    },
    {
      "inputs": [],
      "name": "getSorteado",
      "outputs": [
        {
          "internalType": "bool",
          "name": "",
          "type": "bool"
        }
      ],
      "stateMutability": "view",
      "type": "function"
    },
    {
      "inputs": [],
      "name": "len",
      "outputs": [
        {
          "internalType": "uint256",
          "name": "",
          "type": "uint256"
        }
      ],
      "stateMutability": "view",
      "type": "function"
    },
    {
      "inputs": [],
      "name": "manager",
      "outputs": [
        {
          "internalType": "address",
          "name": "",
          "type": "address"
        }
      ],
      "stateMutability": "view",
      "type": "function"
    },
    {
      "inputs": [],
      "name": "maxEntradas",
      "outputs": [
        {
          "internalType": "uint256",
          "name": "",
          "type": "uint256"
        }
      ],
      "stateMutability": "view",
      "type": "function"
    },
    {
      "inputs": [],
      "name": "numEntradas",
      "outputs": [
        {
          "internalType": "uint256",
          "name": "",
          "type": "uint256"
        }
      ],
      "stateMutability": "view",
      "type": "function"
    },
    {
      "inputs": [],
      "name": "premio",
      "outputs": [
        {
          "internalType": "uint256",
          "name": "",
          "type": "uint256"
        }
      ],
      "stateMutability": "view",
      "type": "function"
    },
    {
      "inputs": [],
      "name": "restEntradas",
      "outputs": [
        {
          "internalType": "uint256",
          "name": "",
          "type": "uint256"
        }
      ],
      "stateMutability": "view",
      "type": "function"
    },
    {
      "inputs": [],
      "name": "sorteado",
      "outputs": [
        {
          "internalType": "bool",
          "name": "",
          "type": "bool"
        }
      ],
      "stateMutability": "view",
      "type": "function"
    },
    {
      "inputs": [],
      "name": "valorEntrada",
      "outputs": [
        {
          "internalType": "uint256",
          "name": "",
          "type": "uint256"
        }
      ],
      "stateMutability": "view",
      "type": "function"
    },
    {
      "inputs": [],
      "name": "vencedor",
      "outputs": [
        {
          "internalType": "address",
          "name": "",
          "type": "address"
        }
      ],
      "stateMutability": "view",
      "type": "function"
    }
  ],
  "bytecode": "0x608060405234801561001057600080fd5b506040516110ad3803806110ad833981810160405281019061003291906100ec565b336000806101000a81548173ffffffffffffffffffffffffffffffffffffffff021916908373ffffffffffffffffffffffffffffffffffffffff1602179055506000600360006101000a81548160ff02191690831515021790555080600581905550600554600681905550662386f26fc1000060078190555050610119565b600080fd5b6000819050919050565b6100c9816100b6565b81146100d457600080fd5b50565b6000815190506100e6816100c0565b92915050565b600060208284031215610102576101016100b1565b5b6000610110848285016100d7565b91505092915050565b610f85806101286000396000f3fe6080604052600436106100c25760003560e01c8063777706571161007f578063ab9f031211610059578063ab9f03121461023b578063abda8f9514610266578063b181606214610291578063b24733e3146102bc576100c2565b806377770657146101db5780639974da36146101e55780639f2b10a714610210576100c2565b806304b2a798146100c75780631d4ab540146100f25780632e1cf51d1461012f578063481c6a751461015a57806350237f721461018557806356d88e27146101b0575b600080fd5b3480156100d357600080fd5b506100dc6102e7565b6040516100e9919061086e565b60405180910390f35b3480156100fe57600080fd5b50610119600480360381019061011491906108c4565b6102fe565b6040516101269190610932565b60405180910390f35b34801561013b57600080fd5b5061014461033d565b604051610151919061095c565b60405180910390f35b34801561016657600080fd5b5061016f610343565b60405161017c9190610932565b60405180910390f35b34801561019157600080fd5b5061019a610367565b6040516101a7919061095c565b60405180910390f35b3480156101bc57600080fd5b506101c561036d565b6040516101d2919061095c565b60405180910390f35b6101e3610373565b005b3480156101f157600080fd5b506101fa610501565b6040516102079190610932565b60405180910390f35b34801561021c57600080fd5b50610225610527565b604051610232919061095c565b60405180910390f35b34801561024757600080fd5b5061025061052d565b60405161025d919061095c565b60405180910390f35b34801561027257600080fd5b5061027b610533565b604051610288919061095c565b60405180910390f35b34801561029d57600080fd5b506102a6610539565b6040516102b39190610a35565b60405180910390f35b3480156102c857600080fd5b506102d16105c7565b6040516102de919061086e565b60405180910390f35b6000600360009054906101000a900460ff16905090565b6001818154811061030e57600080fd5b906000526020600020016000915054906101000a900473ffffffffffffffffffffffffffffffffffffffff1681565b60055481565b60008054906101000a900473ffffffffffffffffffffffffffffffffffffffff1681565b60025481565b60045481565b600360009054906101000a900460ff16156103c3576040517f08c379a00000000000000000000000000000000000000000000000000000000081526004016103ba90610ab4565b60405180910390fd5b6007543411610407576040517f08c379a00000000000000000000000000000000000000000000000000000000081526004016103fe90610b46565b60405180910390fd5b600754346104159190610bc4565b6008819055506104236105da565b6008546006546104339190610bf5565b60068190555060005b6008548110156104b6576001339080600181540180825580915050600190039060005260206000200160009091909190916101000a81548173ffffffffffffffffffffffffffffffffffffffff021916908373ffffffffffffffffffffffffffffffffffffffff160217905550808060010191505061043c565b506007546008546104c79190610c29565b600260008282546104d89190610c6b565b92505081905550600180549050600481905550600554600454106104ff576104fe610661565b5b565b600360019054906101000a900473ffffffffffffffffffffffffffffffffffffffff1681565b60085481565b60065481565b60075481565b606060018054806020026020016040519081016040528092919081815260200182805480156105bd57602002820191906000526020600020905b8160009054906101000a900473ffffffffffffffffffffffffffffffffffffffff1673ffffffffffffffffffffffffffffffffffffffff1681526020019060010190808311610573575b5050505050905090565b600360009054906101000a900460ff1681565b600654600854111561065f5760006006546008546105f89190610bf5565b905060006007548261060a9190610c29565b90503373ffffffffffffffffffffffffffffffffffffffff166108fc829081150290604051600060405180830381858888f19350505050158015610652573d6000803e3d6000fd5b5060065460088190555050505b565b6000600180549050116106a9576040517f08c379a00000000000000000000000000000000000000000000000000000000081526004016106a090610ceb565b60405180910390fd5b600360009054906101000a900460ff16156106f9576040517f08c379a00000000000000000000000000000000000000000000000000000000081526004016106f090610d57565b60405180910390fd5b600060018054905061070961081d565b6107139190610d77565b90506001818154811061072957610728610da8565b5b9060005260206000200160009054906101000a900473ffffffffffffffffffffffffffffffffffffffff16600360016101000a81548173ffffffffffffffffffffffffffffffffffffffff021916908373ffffffffffffffffffffffffffffffffffffffff160217905550600360019054906101000a900473ffffffffffffffffffffffffffffffffffffffff1673ffffffffffffffffffffffffffffffffffffffff166108fc6002549081150290604051600060405180830381858888f193505050501580156107fe573d6000803e3d6000fd5b506001600360006101000a81548160ff02191690831515021790555050565b60004442600160405160200161083593929190610f16565b6040516020818303038152906040528051906020012060001c905090565b60008115159050919050565b61086881610853565b82525050565b6000602082019050610883600083018461085f565b92915050565b600080fd5b6000819050919050565b6108a18161088e565b81146108ac57600080fd5b50565b6000813590506108be81610898565b92915050565b6000602082840312156108da576108d9610889565b5b60006108e8848285016108af565b91505092915050565b600073ffffffffffffffffffffffffffffffffffffffff82169050919050565b600061091c826108f1565b9050919050565b61092c81610911565b82525050565b60006020820190506109476000830184610923565b92915050565b6109568161088e565b82525050565b6000602082019050610971600083018461094d565b92915050565b600081519050919050565b600082825260208201905092915050565b6000819050602082019050919050565b6109ac81610911565b82525050565b60006109be83836109a3565b60208301905092915050565b6000602082019050919050565b60006109e282610977565b6109ec8185610982565b93506109f783610993565b8060005b83811015610a28578151610a0f88826109b2565b9750610a1a836109ca565b9250506001810190506109fb565b5085935050505092915050565b60006020820190508181036000830152610a4f81846109d7565b905092915050565b600082825260208201905092915050565b7f4f20736f727465696f206a6120666f69207265616c697a61646f000000000000600082015250565b6000610a9e601a83610a57565b9150610aa982610a68565b602082019050919050565b60006020820190508181036000830152610acd81610a91565b9050919050565b7f5175616e746964616465206d696e696d6120646520455448206e616f2061746960008201527f6e67696461000000000000000000000000000000000000000000000000000000602082015250565b6000610b30602583610a57565b9150610b3b82610ad4565b604082019050919050565b60006020820190508181036000830152610b5f81610b23565b9050919050565b7f4e487b7100000000000000000000000000000000000000000000000000000000600052601260045260246000fd5b7f4e487b7100000000000000000000000000000000000000000000000000000000600052601160045260246000fd5b6000610bcf8261088e565b9150610bda8361088e565b925082610bea57610be9610b66565b5b828204905092915050565b6000610c008261088e565b9150610c0b8361088e565b9250828203905081811115610c2357610c22610b95565b5b92915050565b6000610c348261088e565b9150610c3f8361088e565b9250828202610c4d8161088e565b91508282048414831517610c6457610c63610b95565b5b5092915050565b6000610c768261088e565b9150610c818361088e565b9250828201905080821115610c9957610c98610b95565b5b92915050565b7f4e656e68756d6120656e7472616461206e612072696661000000000000000000600082015250565b6000610cd5601783610a57565b9150610ce082610c9f565b602082019050919050565b60006020820190508181036000830152610d0481610cc8565b9050919050565b7f536f727465696f206a61207265616c697a61646f000000000000000000000000600082015250565b6000610d41601483610a57565b9150610d4c82610d0b565b602082019050919050565b60006020820190508181036000830152610d7081610d34565b9050919050565b6000610d828261088e565b9150610d8d8361088e565b925082610d9d57610d9c610b66565b5b828206905092915050565b7f4e487b7100000000000000000000000000000000000000000000000000000000600052603260045260246000fd5b6000819050919050565b610df2610ded8261088e565b610dd7565b82525050565b600081549050919050565b600081905092915050565b60008190508160005260206000209050919050565b610e2c81610911565b82525050565b6000610e3e8383610e23565b60208301905092915050565b60008160001c9050919050565b600073ffffffffffffffffffffffffffffffffffffffff82169050919050565b6000610e8a610e8583610e4a565b610e57565b9050919050565b6000610e9d8254610e77565b9050919050565b6000600182019050919050565b6000610ebc82610df8565b610ec68185610e03565b9350610ed183610e0e565b8060005b83811015610f0957610ee682610e91565b610ef08882610e32565b9750610efb83610ea4565b925050600181019050610ed5565b5085935050505092915050565b6000610f228286610de1565b602082019150610f328285610de1565b602082019150610f428284610eb1565b915081905094935050505056fea2646970667358221220225b945bdd8e855c1db2bef8a6b12e6a78face2f39aa86bee5f68bd2d5ec3f3064736f6c63430008180033",
  "linkReferences": {},
  "deployedLinkReferences": {}
}