{
  "_format": "hh-sol-artifact-1",
  "contractName": "Rifa",
  "sourceName": "contracts/Rifa.sol",
  "abi": [
    {
      "inputs": [
        {
          "internalType": "contract RealDigital",
          "name": "_token",
          "type": "address"
        },
        {
          "internalType": "uint256",
          "name": "_maxEntradas",
          "type": "uint256"
        },
        {
          "internalType": "uint256",
          "name": "_valorEntrada",
          "type": "uint256"
        }
      ],
      "stateMutability": "nonpayable",
      "type": "constructor"
    },
    {
      "inputs": [
        {
          "internalType": "uint256",
          "name": "",
          "type": "uint256"
        }
      ],
      "name": "entradas",
      "outputs": [
        {
          "internalType": "address",
          "name": "",
          "type": "address"
        }
      ],
      "stateMutability": "view",
      "type": "function"
    },
    {
      "inputs": [
        {
          "internalType": "uint256",
          "name": "quantidadeTokens",
          "type": "uint256"
        }
      ],
      "name": "entrar",
      "outputs": [],
      "stateMutability": "nonpayable",
      "type": "function"
    },
    {
      "inputs": [],
      "name": "getEntradas",
      "outputs": [
        {
          "internalType": "address[]",
          "name": "",
          "type": "address[]"
        }
      ],
      "stateMutability": "view",
      "type": "function"
    },
    {
      "inputs": [],
      "name": "getSorteado",
      "outputs": [
        {
          "internalType": "bool",
          "name": "",
          "type": "bool"
        }
      ],
      "stateMutability": "view",
      "type": "function"
    },
    {
      "inputs": [],
      "name": "len",
      "outputs": [
        {
          "internalType": "uint256",
          "name": "",
          "type": "uint256"
        }
      ],
      "stateMutability": "view",
      "type": "function"
    },
    {
      "inputs": [],
      "name": "manager",
      "outputs": [
        {
          "internalType": "address",
          "name": "",
          "type": "address"
        }
      ],
      "stateMutability": "view",
      "type": "function"
    },
    {
      "inputs": [],
      "name": "maxEntradas",
      "outputs": [
        {
          "internalType": "uint256",
          "name": "",
          "type": "uint256"
        }
      ],
      "stateMutability": "view",
      "type": "function"
    },
    {
      "inputs": [],
      "name": "numEntradas",
      "outputs": [
        {
          "internalType": "uint256",
          "name": "",
          "type": "uint256"
        }
      ],
      "stateMutability": "view",
      "type": "function"
    },
    {
      "inputs": [],
      "name": "restEntradas",
      "outputs": [
        {
          "internalType": "uint256",
          "name": "",
          "type": "uint256"
        }
      ],
      "stateMutability": "view",
      "type": "function"
    },
    {
      "inputs": [],
      "name": "sorteado",
      "outputs": [
        {
          "internalType": "bool",
          "name": "",
          "type": "bool"
        }
      ],
      "stateMutability": "view",
      "type": "function"
    },
    {
      "inputs": [],
      "name": "token",
      "outputs": [
        {
          "internalType": "contract RealDigital",
          "name": "",
          "type": "address"
        }
      ],
      "stateMutability": "view",
      "type": "function"
    },
    {
      "inputs": [],
      "name": "valorEntrada",
      "outputs": [
        {
          "internalType": "uint256",
          "name": "",
          "type": "uint256"
        }
      ],
      "stateMutability": "view",
      "type": "function"
    },
    {
      "inputs": [],
      "name": "vencedor",
      "outputs": [
        {
          "internalType": "address",
          "name": "",
          "type": "address"
        }
      ],
      "stateMutability": "view",
      "type": "function"
    }
  ],
  "bytecode": "0x60806040523480156200001157600080fd5b50604051620014e0380380620014e08339818101604052810190620000379190620001ac565b336000806101000a81548173ffffffffffffffffffffffffffffffffffffffff021916908373ffffffffffffffffffffffffffffffffffffffff16021790555082600860006101000a81548173ffffffffffffffffffffffffffffffffffffffff021916908373ffffffffffffffffffffffffffffffffffffffff1602179055506000600260006101000a81548160ff021916908315150217905550816004819055506004546005819055508060068190555050505062000208565b600080fd5b600073ffffffffffffffffffffffffffffffffffffffff82169050919050565b60006200012582620000f8565b9050919050565b6000620001398262000118565b9050919050565b6200014b816200012c565b81146200015757600080fd5b50565b6000815190506200016b8162000140565b92915050565b6000819050919050565b620001868162000171565b81146200019257600080fd5b50565b600081519050620001a6816200017b565b92915050565b600080600060608486031215620001c857620001c7620000f3565b5b6000620001d8868287016200015a565b9350506020620001eb8682870162000195565b9250506040620001fe8682870162000195565b9150509250925092565b6112c880620002186000396000f3fe608060405234801561001057600080fd5b50600436106100cf5760003560e01c80639974da361161008c578063abda8f9511610066578063abda8f95146101f2578063b181606214610210578063b24733e31461022e578063fc0c546a1461024c576100cf565b80639974da36146101985780639f2b10a7146101b6578063ab9f0312146101d4576100cf565b806304b2a798146100d45780631d4ab540146100f25780632e1cf51d14610122578063481c6a751461014057806356d88e271461015e5780636de5b2391461017c575b600080fd5b6100dc61026a565b6040516100e99190610998565b60405180910390f35b61010c600480360381019061010791906109ee565b610281565b6040516101199190610a5c565b60405180910390f35b61012a6102c0565b6040516101379190610a86565b60405180910390f35b6101486102c6565b6040516101559190610a5c565b60405180910390f35b6101666102ea565b6040516101739190610a86565b60405180910390f35b610196600480360381019061019191906109ee565b6102f0565b005b6101a0610555565b6040516101ad9190610a5c565b60405180910390f35b6101be61057b565b6040516101cb9190610a86565b60405180910390f35b6101dc610581565b6040516101e99190610a86565b60405180910390f35b6101fa610587565b6040516102079190610a86565b60405180910390f35b61021861058d565b6040516102259190610b5f565b60405180910390f35b61023661061b565b6040516102439190610998565b60405180910390f35b61025461062e565b6040516102619190610be0565b60405180910390f35b6000600260009054906101000a900460ff16905090565b6001818154811061029157600080fd5b906000526020600020016000915054906101000a900473ffffffffffffffffffffffffffffffffffffffff1681565b60045481565b60008054906101000a900473ffffffffffffffffffffffffffffffffffffffff1681565b60035481565b600260009054906101000a900460ff1615610340576040517f08c379a000000000000000000000000000000000000000000000000000000000815260040161033790610c58565b60405180910390fd5b600654811015610385576040517f08c379a000000000000000000000000000000000000000000000000000000000815260040161037c90610cea565b60405180910390fd5b600654816103939190610d68565b60078190555060055460075411156103af576005546007819055505b60006006546007546103c19190610d99565b9050600860009054906101000a900473ffffffffffffffffffffffffffffffffffffffff1673ffffffffffffffffffffffffffffffffffffffff166323b872dd3330846040518463ffffffff1660e01b815260040161042293929190610ddb565b6020604051808303816000875af1158015610441573d6000803e3d6000fd5b505050506040513d601f19601f820116820180604052508101906104659190610e3e565b6104a4576040517f08c379a000000000000000000000000000000000000000000000000000000000815260040161049b90610eb7565b60405180910390fd5b60005b600754811015610521576001339080600181540180825580915050600190039060005260206000200160009091909190916101000a81548173ffffffffffffffffffffffffffffffffffffffff021916908373ffffffffffffffffffffffffffffffffffffffff16021790555080806001019150506104a7565b50600754600560008282546105369190610ed7565b925050819055506004546003541061055157610550610654565b5b5050565b600260019054906101000a900473ffffffffffffffffffffffffffffffffffffffff1681565b60075481565b60055481565b60065481565b6060600180548060200260200160405190810160405280929190818152602001828054801561061157602002820191906000526020600020905b8160009054906101000a900473ffffffffffffffffffffffffffffffffffffffff1673ffffffffffffffffffffffffffffffffffffffff16815260200190600101908083116105c7575b5050505050905090565b600260009054906101000a900460ff1681565b600860009054906101000a900473ffffffffffffffffffffffffffffffffffffffff1681565b60006001805490501161069c576040517f08c379a000000000000000000000000000000000000000000000000000000000815260040161069390610f57565b60405180910390fd5b600260009054906101000a900460ff16156106ec576040517f08c379a00000000000000000000000000000000000000000000000000000000081526004016106e390610fc3565b60405180910390fd5b60006001805490506106fc610947565b6107069190610fe3565b90506001818154811061071c5761071b611014565b5b9060005260206000200160009054906101000a900473ffffffffffffffffffffffffffffffffffffffff16600260016101000a81548173ffffffffffffffffffffffffffffffffffffffff021916908373ffffffffffffffffffffffffffffffffffffffff1602179055506000600860009054906101000a900473ffffffffffffffffffffffffffffffffffffffff1673ffffffffffffffffffffffffffffffffffffffff166370a08231306040518263ffffffff1660e01b81526004016107e49190610a5c565b602060405180830381865afa158015610801573d6000803e3d6000fd5b505050506040513d601f19601f820116820180604052508101906108259190611058565b9050600860009054906101000a900473ffffffffffffffffffffffffffffffffffffffff1673ffffffffffffffffffffffffffffffffffffffff1663a9059cbb600260019054906101000a900473ffffffffffffffffffffffffffffffffffffffff16836040518363ffffffff1660e01b81526004016108a6929190611085565b6020604051808303816000875af11580156108c5573d6000803e3d6000fd5b505050506040513d601f19601f820116820180604052508101906108e99190610e3e565b610928576040517f08c379a000000000000000000000000000000000000000000000000000000000815260040161091f906110fa565b60405180910390fd5b6001600260006101000a81548160ff0219169083151502179055505050565b60004442600160405160200161095f93929190611259565b6040516020818303038152906040528051906020012060001c905090565b60008115159050919050565b6109928161097d565b82525050565b60006020820190506109ad6000830184610989565b92915050565b600080fd5b6000819050919050565b6109cb816109b8565b81146109d657600080fd5b50565b6000813590506109e8816109c2565b92915050565b600060208284031215610a0457610a036109b3565b5b6000610a12848285016109d9565b91505092915050565b600073ffffffffffffffffffffffffffffffffffffffff82169050919050565b6000610a4682610a1b565b9050919050565b610a5681610a3b565b82525050565b6000602082019050610a716000830184610a4d565b92915050565b610a80816109b8565b82525050565b6000602082019050610a9b6000830184610a77565b92915050565b600081519050919050565b600082825260208201905092915050565b6000819050602082019050919050565b610ad681610a3b565b82525050565b6000610ae88383610acd565b60208301905092915050565b6000602082019050919050565b6000610b0c82610aa1565b610b168185610aac565b9350610b2183610abd565b8060005b83811015610b52578151610b398882610adc565b9750610b4483610af4565b925050600181019050610b25565b5085935050505092915050565b60006020820190508181036000830152610b798184610b01565b905092915050565b6000819050919050565b6000610ba6610ba1610b9c84610a1b565b610b81565b610a1b565b9050919050565b6000610bb882610b8b565b9050919050565b6000610bca82610bad565b9050919050565b610bda81610bbf565b82525050565b6000602082019050610bf56000830184610bd1565b92915050565b600082825260208201905092915050565b7f4f20736f727465696f206a6120666f69207265616c697a61646f000000000000600082015250565b6000610c42601a83610bfb565b9150610c4d82610c0c565b602082019050919050565b60006020820190508181036000830152610c7181610c35565b9050919050565b7f5175616e746964616465206d696e696d6120646520746f6b656e73206e616f2060008201527f6174696e67696461000000000000000000000000000000000000000000000000602082015250565b6000610cd4602883610bfb565b9150610cdf82610c78565b604082019050919050565b60006020820190508181036000830152610d0381610cc7565b9050919050565b7f4e487b7100000000000000000000000000000000000000000000000000000000600052601260045260246000fd5b7f4e487b7100000000000000000000000000000000000000000000000000000000600052601160045260246000fd5b6000610d73826109b8565b9150610d7e836109b8565b925082610d8e57610d8d610d0a565b5b828204905092915050565b6000610da4826109b8565b9150610daf836109b8565b9250828202610dbd816109b8565b91508282048414831517610dd457610dd3610d39565b5b5092915050565b6000606082019050610df06000830186610a4d565b610dfd6020830185610a4d565b610e0a6040830184610a77565b949350505050565b610e1b8161097d565b8114610e2657600080fd5b50565b600081519050610e3881610e12565b92915050565b600060208284031215610e5457610e536109b3565b5b6000610e6284828501610e29565b91505092915050565b7f5472616e73666572656e63696120646520746f6b656e732066616c686f750000600082015250565b6000610ea1601e83610bfb565b9150610eac82610e6b565b602082019050919050565b60006020820190508181036000830152610ed081610e94565b9050919050565b6000610ee2826109b8565b9150610eed836109b8565b9250828203905081811115610f0557610f04610d39565b5b92915050565b7f4e656e68756d6120656e7472616461206e612072696661000000000000000000600082015250565b6000610f41601783610bfb565b9150610f4c82610f0b565b602082019050919050565b60006020820190508181036000830152610f7081610f34565b9050919050565b7f536f727465696f206a61207265616c697a61646f000000000000000000000000600082015250565b6000610fad601483610bfb565b9150610fb882610f77565b602082019050919050565b60006020820190508181036000830152610fdc81610fa0565b9050919050565b6000610fee826109b8565b9150610ff9836109b8565b92508261100957611008610d0a565b5b828206905092915050565b7f4e487b7100000000000000000000000000000000000000000000000000000000600052603260045260246000fd5b600081519050611052816109c2565b92915050565b60006020828403121561106e5761106d6109b3565b5b600061107c84828501611043565b91505092915050565b600060408201905061109a6000830185610a4d565b6110a76020830184610a77565b9392505050565b7f5472616e73666572656e63696120646f207072656d696f2066616c686f750000600082015250565b60006110e4601e83610bfb565b91506110ef826110ae565b602082019050919050565b60006020820190508181036000830152611113816110d7565b9050919050565b6000819050919050565b611135611130826109b8565b61111a565b82525050565b600081549050919050565b600081905092915050565b60008190508160005260206000209050919050565b61116f81610a3b565b82525050565b60006111818383611166565b60208301905092915050565b60008160001c9050919050565b600073ffffffffffffffffffffffffffffffffffffffff82169050919050565b60006111cd6111c88361118d565b61119a565b9050919050565b60006111e082546111ba565b9050919050565b6000600182019050919050565b60006111ff8261113b565b6112098185611146565b935061121483611151565b8060005b8381101561124c57611229826111d4565b6112338882611175565b975061123e836111e7565b925050600181019050611218565b5085935050505092915050565b60006112658286611124565b6020820191506112758285611124565b60208201915061128582846111f4565b915081905094935050505056fea2646970667358221220f25f57a2b1e65dcf3396c4a75bf3190c223cd92d81c8b381f73506557e338d4c64736f6c63430008180033",
  "linkReferences": {},
  "deployedLinkReferences": {}
}