{
  "_format": "hh-sol-artifact-1",
  "contractName": "Rifa",
  "sourceName": "contracts/Rifa.sol",
  "abi": [
    {
      "inputs": [
        {
          "internalType": "contract RealDigital",
          "name": "_token",
          "type": "address"
        },
        {
          "internalType": "uint256",
          "name": "_maxEntradas",
          "type": "uint256"
        },
        {
          "internalType": "uint256",
          "name": "_valorEntrada",
          "type": "uint256"
        }
      ],
      "stateMutability": "nonpayable",
      "type": "constructor"
    },
    {
      "inputs": [
        {
          "internalType": "uint256",
          "name": "",
          "type": "uint256"
        }
      ],
      "name": "entradas",
      "outputs": [
        {
          "internalType": "address",
          "name": "",
          "type": "address"
        }
      ],
      "stateMutability": "view",
      "type": "function"
    },
    {
      "inputs": [],
      "name": "entradasCount",
      "outputs": [
        {
          "internalType": "uint256",
          "name": "",
          "type": "uint256"
        }
      ],
      "stateMutability": "view",
      "type": "function"
    },
    {
      "inputs": [
        {
          "internalType": "uint256",
          "name": "quantidadeRifas",
          "type": "uint256"
        }
      ],
      "name": "entrar",
      "outputs": [],
      "stateMutability": "nonpayable",
      "type": "function"
    },
    {
      "inputs": [],
      "name": "escolherVencedor",
      "outputs": [],
      "stateMutability": "nonpayable",
      "type": "function"
    },
    {
      "inputs": [],
      "name": "getEntradas",
      "outputs": [
        {
          "internalType": "address[]",
          "name": "",
          "type": "address[]"
        }
      ],
      "stateMutability": "view",
      "type": "function"
    },
    {
      "inputs": [],
      "name": "getSorteado",
      "outputs": [
        {
          "internalType": "bool",
          "name": "",
          "type": "bool"
        }
      ],
      "stateMutability": "view",
      "type": "function"
    },
    {
      "inputs": [],
      "name": "manager",
      "outputs": [
        {
          "internalType": "address",
          "name": "",
          "type": "address"
        }
      ],
      "stateMutability": "view",
      "type": "function"
    },
    {
      "inputs": [],
      "name": "maxEntradas",
      "outputs": [
        {
          "internalType": "uint256",
          "name": "",
          "type": "uint256"
        }
      ],
      "stateMutability": "view",
      "type": "function"
    },
    {
      "inputs": [],
      "name": "restEntradas",
      "outputs": [
        {
          "internalType": "uint256",
          "name": "",
          "type": "uint256"
        }
      ],
      "stateMutability": "view",
      "type": "function"
    },
    {
      "inputs": [],
      "name": "sorteado",
      "outputs": [
        {
          "internalType": "bool",
          "name": "",
          "type": "bool"
        }
      ],
      "stateMutability": "view",
      "type": "function"
    },
    {
      "inputs": [],
      "name": "token",
      "outputs": [
        {
          "internalType": "contract RealDigital",
          "name": "",
          "type": "address"
        }
      ],
      "stateMutability": "view",
      "type": "function"
    },
    {
      "inputs": [],
      "name": "valorEntrada",
      "outputs": [
        {
          "internalType": "uint256",
          "name": "",
          "type": "uint256"
        }
      ],
      "stateMutability": "view",
      "type": "function"
    },
    {
      "inputs": [],
      "name": "vencedor",
      "outputs": [
        {
          "internalType": "address",
          "name": "",
          "type": "address"
        }
      ],
      "stateMutability": "view",
      "type": "function"
    }
  ],
  "bytecode": "0x60806040523480156200001157600080fd5b5060405162001a4938038062001a498339818101604052810190620000379190620001ac565b336000806101000a81548173ffffffffffffffffffffffffffffffffffffffff021916908373ffffffffffffffffffffffffffffffffffffffff16021790555082600760006101000a81548173ffffffffffffffffffffffffffffffffffffffff021916908373ffffffffffffffffffffffffffffffffffffffff1602179055506000600360006101000a81548160ff021916908315150217905550816004819055506004546005819055508060068190555050505062000208565b600080fd5b600073ffffffffffffffffffffffffffffffffffffffff82169050919050565b60006200012582620000f8565b9050919050565b6000620001398262000118565b9050919050565b6200014b816200012c565b81146200015757600080fd5b50565b6000815190506200016b8162000140565b92915050565b6000819050919050565b620001868162000171565b81146200019257600080fd5b50565b600081519050620001a6816200017b565b92915050565b600080600060608486031215620001c857620001c7620000f3565b5b6000620001d8868287016200015a565b9350506020620001eb8682870162000195565b9250506040620001fe8682870162000195565b9150509250925092565b61183180620002186000396000f3fe608060405234801561001057600080fd5b50600436106100cf5760003560e01c8063933840051161008c578063abda8f9511610066578063abda8f95146101de578063b1816062146101fc578063b24733e31461021a578063fc0c546a14610238576100cf565b806393384005146101845780639974da36146101a2578063ab9f0312146101c0576100cf565b806304b2a798146100d45780630ce65e88146100f25780631d4ab540146100fc5780632e1cf51d1461012c578063481c6a751461014a5780636de5b23914610168575b600080fd5b6100dc610256565b6040516100e99190610e45565b60405180910390f35b6100fa61026d565b005b61011660048036038101906101119190610e9b565b6105d7565b6040516101239190610f09565b60405180910390f35b61013461060a565b6040516101419190610f33565b60405180910390f35b610152610610565b60405161015f9190610f09565b60405180910390f35b610182600480360381019061017d9190610e9b565b610634565b005b61018c6109b2565b6040516101999190610f33565b60405180910390f35b6101aa6109b8565b6040516101b79190610f09565b60405180910390f35b6101c86109de565b6040516101d59190610f33565b60405180910390f35b6101e66109e4565b6040516101f39190610f33565b60405180910390f35b6102046109ea565b604051610211919061100c565b60405180910390f35b610222610ade565b60405161022f9190610e45565b60405180910390f35b610240610af1565b60405161024d919061108d565b60405180910390f35b6000600360009054906101000a900460ff16905090565b60008054906101000a900473ffffffffffffffffffffffffffffffffffffffff1673ffffffffffffffffffffffffffffffffffffffff163373ffffffffffffffffffffffffffffffffffffffff16146102fb576040517f08c379a00000000000000000000000000000000000000000000000000000000081526004016102f29061112b565b60405180910390fd5b600060025411610340576040517f08c379a000000000000000000000000000000000000000000000000000000000815260040161033790611197565b60405180910390fd5b600360009054906101000a900460ff1615610390576040517f08c379a000000000000000000000000000000000000000000000000000000000815260040161038790611203565b60405180910390fd5b600060025461039d610b17565b6103a79190611252565b90506001600082815260200190815260200160002060009054906101000a900473ffffffffffffffffffffffffffffffffffffffff16600360016101000a81548173ffffffffffffffffffffffffffffffffffffffff021916908373ffffffffffffffffffffffffffffffffffffffff160217905550600760009054906101000a900473ffffffffffffffffffffffffffffffffffffffff1673ffffffffffffffffffffffffffffffffffffffff1663a9059cbb600360019054906101000a900473ffffffffffffffffffffffffffffffffffffffff16600760009054906101000a900473ffffffffffffffffffffffffffffffffffffffff1673ffffffffffffffffffffffffffffffffffffffff166370a08231306040518263ffffffff1660e01b81526004016104d99190610f09565b602060405180830381865afa1580156104f6573d6000803e3d6000fd5b505050506040513d601f19601f8201168201806040525081019061051a9190611298565b6040518363ffffffff1660e01b81526004016105379291906112c5565b6020604051808303816000875af1158015610556573d6000803e3d6000fd5b505050506040513d601f19601f8201168201806040525081019061057a919061131a565b6105b9576040517f08c379a00000000000000000000000000000000000000000000000000000000081526004016105b090611393565b60405180910390fd5b6001600360006101000a81548160ff02191690831515021790555050565b60016020528060005260406000206000915054906101000a900473ffffffffffffffffffffffffffffffffffffffff1681565b60045481565b60008054906101000a900473ffffffffffffffffffffffffffffffffffffffff1681565b600360009054906101000a900460ff1615610684576040517f08c379a000000000000000000000000000000000000000000000000000000000815260040161067b906113ff565b60405180910390fd5b6000600554116106c9576040517f08c379a00000000000000000000000000000000000000000000000000000000081526004016106c09061146b565b60405180910390fd5b6000811161070c576040517f08c379a0000000000000000000000000000000000000000000000000000000008152600401610703906114fd565b60405180910390fd5b60006006548261071c919061154c565b905080600760009054906101000a900473ffffffffffffffffffffffffffffffffffffffff1673ffffffffffffffffffffffffffffffffffffffff166370a08231336040518263ffffffff1660e01b815260040161077a9190610f09565b602060405180830381865afa158015610797573d6000803e3d6000fd5b505050506040513d601f19601f820116820180604052508101906107bb9190611298565b10156107fc576040517f08c379a00000000000000000000000000000000000000000000000000000000081526004016107f390611600565b60405180910390fd5b60055482111561081c57600554915060065482610819919061154c565b90505b600760009054906101000a900473ffffffffffffffffffffffffffffffffffffffff1673ffffffffffffffffffffffffffffffffffffffff166323b872dd3330846040518463ffffffff1660e01b815260040161087b93929190611620565b6020604051808303816000875af115801561089a573d6000803e3d6000fd5b505050506040513d601f19601f820116820180604052508101906108be919061131a565b6108fd576040517f08c379a00000000000000000000000000000000000000000000000000000000081526004016108f4906116a3565b60405180910390fd5b60005b82811015610981573360016000600254815260200190815260200160002060006101000a81548173ffffffffffffffffffffffffffffffffffffffff021916908373ffffffffffffffffffffffffffffffffffffffff1602179055506002600081548092919061096f906116c3565b91905055508080600101915050610900565b508160056000828254610994919061170b565b925050819055506000600554036109ae576109ad610b4e565b5b5050565b60025481565b600360019054906101000a900473ffffffffffffffffffffffffffffffffffffffff1681565b60055481565b60065481565b6060600060025467ffffffffffffffff811115610a0a57610a0961173f565b5b604051908082528060200260200182016040528015610a385781602001602082028036833780820191505090505b50905060005b600254811015610ad6576001600082815260200190815260200160002060009054906101000a900473ffffffffffffffffffffffffffffffffffffffff16828281518110610a8f57610a8e61176e565b5b602002602001019073ffffffffffffffffffffffffffffffffffffffff16908173ffffffffffffffffffffffffffffffffffffffff16815250508080600101915050610a3e565b508091505090565b600360009054906101000a900460ff1681565b600760009054906101000a900473ffffffffffffffffffffffffffffffffffffffff1681565b60004442600254604051602001610b30939291906117be565b6040516020818303038152906040528051906020012060001c905090565b600060025411610b93576040517f08c379a0000000000000000000000000000000000000000000000000000000008152600401610b8a90611197565b60405180910390fd5b600360009054906101000a900460ff1615610be3576040517f08c379a0000000000000000000000000000000000000000000000000000000008152600401610bda90611203565b60405180910390fd5b6000600254610bf0610b17565b610bfa9190611252565b90506001600082815260200190815260200160002060009054906101000a900473ffffffffffffffffffffffffffffffffffffffff16600360016101000a81548173ffffffffffffffffffffffffffffffffffffffff021916908373ffffffffffffffffffffffffffffffffffffffff160217905550600760009054906101000a900473ffffffffffffffffffffffffffffffffffffffff1673ffffffffffffffffffffffffffffffffffffffff1663a9059cbb600360019054906101000a900473ffffffffffffffffffffffffffffffffffffffff16600760009054906101000a900473ffffffffffffffffffffffffffffffffffffffff1673ffffffffffffffffffffffffffffffffffffffff166370a08231306040518263ffffffff1660e01b8152600401610d2c9190610f09565b602060405180830381865afa158015610d49573d6000803e3d6000fd5b505050506040513d601f19601f82011682018060405250810190610d6d9190611298565b6040518363ffffffff1660e01b8152600401610d8a9291906112c5565b6020604051808303816000875af1158015610da9573d6000803e3d6000fd5b505050506040513d601f19601f82011682018060405250810190610dcd919061131a565b610e0c576040517f08c379a0000000000000000000000000000000000000000000000000000000008152600401610e0390611393565b60405180910390fd5b6001600360006101000a81548160ff02191690831515021790555050565b60008115159050919050565b610e3f81610e2a565b82525050565b6000602082019050610e5a6000830184610e36565b92915050565b600080fd5b6000819050919050565b610e7881610e65565b8114610e8357600080fd5b50565b600081359050610e9581610e6f565b92915050565b600060208284031215610eb157610eb0610e60565b5b6000610ebf84828501610e86565b91505092915050565b600073ffffffffffffffffffffffffffffffffffffffff82169050919050565b6000610ef382610ec8565b9050919050565b610f0381610ee8565b82525050565b6000602082019050610f1e6000830184610efa565b92915050565b610f2d81610e65565b82525050565b6000602082019050610f486000830184610f24565b92915050565b600081519050919050565b600082825260208201905092915050565b6000819050602082019050919050565b610f8381610ee8565b82525050565b6000610f958383610f7a565b60208301905092915050565b6000602082019050919050565b6000610fb982610f4e565b610fc38185610f59565b9350610fce83610f6a565b8060005b83811015610fff578151610fe68882610f89565b9750610ff183610fa1565b925050600181019050610fd2565b5085935050505092915050565b600060208201905081810360008301526110268184610fae565b905092915050565b6000819050919050565b600061105361104e61104984610ec8565b61102e565b610ec8565b9050919050565b600061106582611038565b9050919050565b60006110778261105a565b9050919050565b6110878161106c565b82525050565b60006020820190506110a2600083018461107e565b92915050565b600082825260208201905092915050565b7f4170656e6173206f20676572656e746520706f6465206368616d61722065737460008201527f612066756e63616f000000000000000000000000000000000000000000000000602082015250565b60006111156028836110a8565b9150611120826110b9565b604082019050919050565b6000602082019050818103600083015261114481611108565b9050919050565b7f4e656e68756d6120656e7472616461206e612072696661000000000000000000600082015250565b60006111816017836110a8565b915061118c8261114b565b602082019050919050565b600060208201905081810360008301526111b081611174565b9050919050565b7f536f727465696f206a61207265616c697a61646f000000000000000000000000600082015250565b60006111ed6014836110a8565b91506111f8826111b7565b602082019050919050565b6000602082019050818103600083015261121c816111e0565b9050919050565b7f4e487b7100000000000000000000000000000000000000000000000000000000600052601260045260246000fd5b600061125d82610e65565b915061126883610e65565b92508261127857611277611223565b5b828206905092915050565b60008151905061129281610e6f565b92915050565b6000602082840312156112ae576112ad610e60565b5b60006112bc84828501611283565b91505092915050565b60006040820190506112da6000830185610efa565b6112e76020830184610f24565b9392505050565b6112f781610e2a565b811461130257600080fd5b50565b600081519050611314816112ee565b92915050565b6000602082840312156113305761132f610e60565b5b600061133e84828501611305565b91505092915050565b7f5472616e73666572656e63696120646f207072656d696f2066616c686f750000600082015250565b600061137d601e836110a8565b915061138882611347565b602082019050919050565b600060208201905081810360008301526113ac81611370565b9050919050565b7f4f20736f727465696f206a6120666f69207265616c697a61646f000000000000600082015250565b60006113e9601a836110a8565b91506113f4826113b3565b602082019050919050565b60006020820190508181036000830152611418816113dc565b9050919050565b7f4e616f20686120656e74726164617320646973706f6e69766569730000000000600082015250565b6000611455601b836110a8565b91506114608261141f565b602082019050919050565b6000602082019050818103600083015261148481611448565b9050919050565b7f5175616e746964616465206465207269666173206465766520736572206d616960008201527f6f7220717565207a65726f000000000000000000000000000000000000000000602082015250565b60006114e7602b836110a8565b91506114f28261148b565b604082019050919050565b60006020820190508181036000830152611516816114da565b9050919050565b7f4e487b7100000000000000000000000000000000000000000000000000000000600052601160045260246000fd5b600061155782610e65565b915061156283610e65565b925082820261157081610e65565b915082820484148315176115875761158661151d565b5b5092915050565b7f53616c646f20696e737566696369656e7465207061726120656e74726172206e60008201527f6120726966610000000000000000000000000000000000000000000000000000602082015250565b60006115ea6026836110a8565b91506115f58261158e565b604082019050919050565b60006020820190508181036000830152611619816115dd565b9050919050565b60006060820190506116356000830186610efa565b6116426020830185610efa565b61164f6040830184610f24565b949350505050565b7f5472616e73666572656e63696120646520746f6b656e732066616c686f750000600082015250565b600061168d601e836110a8565b915061169882611657565b602082019050919050565b600060208201905081810360008301526116bc81611680565b9050919050565b60006116ce82610e65565b91507fffffffffffffffffffffffffffffffffffffffffffffffffffffffffffffffff8203611700576116ff61151d565b5b600182019050919050565b600061171682610e65565b915061172183610e65565b92508282039050818111156117395761173861151d565b5b92915050565b7f4e487b7100000000000000000000000000000000000000000000000000000000600052604160045260246000fd5b7f4e487b7100000000000000000000000000000000000000000000000000000000600052603260045260246000fd5b6000819050919050565b6117b86117b382610e65565b61179d565b82525050565b60006117ca82866117a7565b6020820191506117da82856117a7565b6020820191506117ea82846117a7565b60208201915081905094935050505056fea2646970667358221220b93e3cc226c71146a9fb2875053b5f5cb030c9d0b3e066820e24e410add97d4564736f6c63430008180033",
  "linkReferences": {},
  "deployedLinkReferences": {}
}