{
  "_format": "hh-sol-artifact-1",
  "contractName": "Rifa",
  "sourceName": "contracts/Rifa.sol",
  "abi": [
    {
      "inputs": [
        {
          "internalType": "contract RealDigital",
          "name": "_token",
          "type": "address"
        },
        {
          "internalType": "uint256",
          "name": "_maxEntradas",
          "type": "uint256"
        },
        {
          "internalType": "uint256",
          "name": "_valorEntrada",
          "type": "uint256"
        }
      ],
      "stateMutability": "nonpayable",
      "type": "constructor"
    },
    {
      "inputs": [],
      "name": "TokensAcumulados",
      "outputs": [
        {
          "internalType": "uint256",
          "name": "",
          "type": "uint256"
        }
      ],
      "stateMutability": "view",
      "type": "function"
    },
    {
      "inputs": [
        {
          "internalType": "uint256",
          "name": "",
          "type": "uint256"
        }
      ],
      "name": "entradas",
      "outputs": [
        {
          "internalType": "address",
          "name": "",
          "type": "address"
        }
      ],
      "stateMutability": "view",
      "type": "function"
    },
    {
      "inputs": [],
      "name": "entradasCount",
      "outputs": [
        {
          "internalType": "uint256",
          "name": "",
          "type": "uint256"
        }
      ],
      "stateMutability": "view",
      "type": "function"
    },
    {
      "inputs": [
        {
          "internalType": "uint256",
          "name": "quantidadeRifas",
          "type": "uint256"
        }
      ],
      "name": "entrar",
      "outputs": [],
      "stateMutability": "nonpayable",
      "type": "function"
    },
    {
      "inputs": [],
      "name": "escolherVencedor",
      "outputs": [],
      "stateMutability": "nonpayable",
      "type": "function"
    },
    {
      "inputs": [],
      "name": "getEntradas",
      "outputs": [
        {
          "internalType": "address[]",
          "name": "",
          "type": "address[]"
        }
      ],
      "stateMutability": "view",
      "type": "function"
    },
    {
      "inputs": [],
      "name": "getSorteado",
      "outputs": [
        {
          "internalType": "bool",
          "name": "",
          "type": "bool"
        }
      ],
      "stateMutability": "view",
      "type": "function"
    },
    {
      "inputs": [],
      "name": "manager",
      "outputs": [
        {
          "internalType": "address",
          "name": "",
          "type": "address"
        }
      ],
      "stateMutability": "view",
      "type": "function"
    },
    {
      "inputs": [],
      "name": "maxEntradas",
      "outputs": [
        {
          "internalType": "uint256",
          "name": "",
          "type": "uint256"
        }
      ],
      "stateMutability": "view",
      "type": "function"
    },
    {
      "inputs": [],
      "name": "restEntradas",
      "outputs": [
        {
          "internalType": "uint256",
          "name": "",
          "type": "uint256"
        }
      ],
      "stateMutability": "view",
      "type": "function"
    },
    {
      "inputs": [],
      "name": "sorteado",
      "outputs": [
        {
          "internalType": "bool",
          "name": "",
          "type": "bool"
        }
      ],
      "stateMutability": "view",
      "type": "function"
    },
    {
      "inputs": [],
      "name": "token",
      "outputs": [
        {
          "internalType": "contract RealDigital",
          "name": "",
          "type": "address"
        }
      ],
      "stateMutability": "view",
      "type": "function"
    },
    {
      "inputs": [],
      "name": "vagasRestantes",
      "outputs": [
        {
          "internalType": "uint256",
          "name": "",
          "type": "uint256"
        }
      ],
      "stateMutability": "view",
      "type": "function"
    },
    {
      "inputs": [],
      "name": "valorEntrada",
      "outputs": [
        {
          "internalType": "uint256",
          "name": "",
          "type": "uint256"
        }
      ],
      "stateMutability": "view",
      "type": "function"
    },
    {
      "inputs": [],
      "name": "vencedor",
      "outputs": [
        {
          "internalType": "address",
          "name": "",
          "type": "address"
        }
      ],
      "stateMutability": "view",
      "type": "function"
    }
  ],
  "bytecode": "0x60806040523480156200001157600080fd5b5060405162001b5838038062001b588339818101604052810190620000379190620001ac565b336000806101000a81548173ffffffffffffffffffffffffffffffffffffffff021916908373ffffffffffffffffffffffffffffffffffffffff16021790555082600760006101000a81548173ffffffffffffffffffffffffffffffffffffffff021916908373ffffffffffffffffffffffffffffffffffffffff1602179055506000600360006101000a81548160ff021916908315150217905550816004819055506004546005819055508060068190555050505062000208565b600080fd5b600073ffffffffffffffffffffffffffffffffffffffff82169050919050565b60006200012582620000f8565b9050919050565b6000620001398262000118565b9050919050565b6200014b816200012c565b81146200015757600080fd5b50565b6000815190506200016b8162000140565b92915050565b6000819050919050565b620001868162000171565b81146200019257600080fd5b50565b600081519050620001a6816200017b565b92915050565b600080600060608486031215620001c857620001c7620000f3565b5b6000620001d8868287016200015a565b9350506020620001eb8682870162000195565b9250506040620001fe8682870162000195565b9150509250925092565b61194080620002186000396000f3fe608060405234801561001057600080fd5b50600436106100f55760003560e01c806396644d5b11610097578063b181606211610066578063b181606214610240578063b24733e31461025e578063cb2e7f031461027c578063fc0c546a1461029a576100f5565b806396644d5b146101c85780639974da36146101e6578063ab9f031214610204578063abda8f9514610222576100f5565b80632e1cf51d116100d35780632e1cf51d14610152578063481c6a75146101705780636de5b2391461018e57806393384005146101aa576100f5565b806304b2a798146100fa5780630ce65e88146101185780631d4ab54014610122575b600080fd5b6101026102b8565b60405161010f9190610f54565b60405180910390f35b6101206102cf565b005b61013c60048036038101906101379190610faa565b610639565b6040516101499190611018565b60405180910390f35b61015a61066c565b6040516101679190611042565b60405180910390f35b610178610672565b6040516101859190611018565b60405180910390f35b6101a860048036038101906101a39190610faa565b610696565b005b6101b2610a14565b6040516101bf9190611042565b60405180910390f35b6101d0610a1a565b6040516101dd9190611042565b60405180910390f35b6101ee610a24565b6040516101fb9190611018565b60405180910390f35b61020c610a4a565b6040516102199190611042565b60405180910390f35b61022a610a50565b6040516102379190611042565b60405180910390f35b610248610a56565b604051610255919061111b565b60405180910390f35b610266610b4a565b6040516102739190610f54565b60405180910390f35b610284610b5d565b6040516102919190611042565b60405180910390f35b6102a2610c00565b6040516102af919061119c565b60405180910390f35b6000600360009054906101000a900460ff16905090565b60008054906101000a900473ffffffffffffffffffffffffffffffffffffffff1673ffffffffffffffffffffffffffffffffffffffff163373ffffffffffffffffffffffffffffffffffffffff161461035d576040517f08c379a00000000000000000000000000000000000000000000000000000000081526004016103549061123a565b60405180910390fd5b6000600254116103a2576040517f08c379a0000000000000000000000000000000000000000000000000000000008152600401610399906112a6565b60405180910390fd5b600360009054906101000a900460ff16156103f2576040517f08c379a00000000000000000000000000000000000000000000000000000000081526004016103e990611312565b60405180910390fd5b60006002546103ff610c26565b6104099190611361565b90506001600082815260200190815260200160002060009054906101000a900473ffffffffffffffffffffffffffffffffffffffff16600360016101000a81548173ffffffffffffffffffffffffffffffffffffffff021916908373ffffffffffffffffffffffffffffffffffffffff160217905550600760009054906101000a900473ffffffffffffffffffffffffffffffffffffffff1673ffffffffffffffffffffffffffffffffffffffff1663a9059cbb600360019054906101000a900473ffffffffffffffffffffffffffffffffffffffff16600760009054906101000a900473ffffffffffffffffffffffffffffffffffffffff1673ffffffffffffffffffffffffffffffffffffffff166370a08231306040518263ffffffff1660e01b815260040161053b9190611018565b602060405180830381865afa158015610558573d6000803e3d6000fd5b505050506040513d601f19601f8201168201806040525081019061057c91906113a7565b6040518363ffffffff1660e01b81526004016105999291906113d4565b6020604051808303816000875af11580156105b8573d6000803e3d6000fd5b505050506040513d601f19601f820116820180604052508101906105dc9190611429565b61061b576040517f08c379a0000000000000000000000000000000000000000000000000000000008152600401610612906114a2565b60405180910390fd5b6001600360006101000a81548160ff02191690831515021790555050565b60016020528060005260406000206000915054906101000a900473ffffffffffffffffffffffffffffffffffffffff1681565b60045481565b60008054906101000a900473ffffffffffffffffffffffffffffffffffffffff1681565b600360009054906101000a900460ff16156106e6576040517f08c379a00000000000000000000000000000000000000000000000000000000081526004016106dd9061150e565b60405180910390fd5b60006005541161072b576040517f08c379a00000000000000000000000000000000000000000000000000000000081526004016107229061157a565b60405180910390fd5b6000811161076e576040517f08c379a00000000000000000000000000000000000000000000000000000000081526004016107659061160c565b60405180910390fd5b60006006548261077e919061165b565b905080600760009054906101000a900473ffffffffffffffffffffffffffffffffffffffff1673ffffffffffffffffffffffffffffffffffffffff166370a08231336040518263ffffffff1660e01b81526004016107dc9190611018565b602060405180830381865afa1580156107f9573d6000803e3d6000fd5b505050506040513d601f19601f8201168201806040525081019061081d91906113a7565b101561085e576040517f08c379a00000000000000000000000000000000000000000000000000000000081526004016108559061170f565b60405180910390fd5b60055482111561087e5760055491506006548261087b919061165b565b90505b600760009054906101000a900473ffffffffffffffffffffffffffffffffffffffff1673ffffffffffffffffffffffffffffffffffffffff166323b872dd3330846040518463ffffffff1660e01b81526004016108dd9392919061172f565b6020604051808303816000875af11580156108fc573d6000803e3d6000fd5b505050506040513d601f19601f820116820180604052508101906109209190611429565b61095f576040517f08c379a0000000000000000000000000000000000000000000000000000000008152600401610956906117b2565b60405180910390fd5b60005b828110156109e3573360016000600254815260200190815260200160002060006101000a81548173ffffffffffffffffffffffffffffffffffffffff021916908373ffffffffffffffffffffffffffffffffffffffff160217905550600260008154809291906109d1906117d2565b91905055508080600101915050610962565b5081600560008282546109f6919061181a565b92505081905550600060055403610a1057610a0f610c5d565b5b5050565b60025481565b6000600554905090565b600360019054906101000a900473ffffffffffffffffffffffffffffffffffffffff1681565b60055481565b60065481565b6060600060025467ffffffffffffffff811115610a7657610a7561184e565b5b604051908082528060200260200182016040528015610aa45781602001602082028036833780820191505090505b50905060005b600254811015610b42576001600082815260200190815260200160002060009054906101000a900473ffffffffffffffffffffffffffffffffffffffff16828281518110610afb57610afa61187d565b5b602002602001019073ffffffffffffffffffffffffffffffffffffffff16908173ffffffffffffffffffffffffffffffffffffffff16815250508080600101915050610aaa565b508091505090565b600360009054906101000a900460ff1681565b6000600760009054906101000a900473ffffffffffffffffffffffffffffffffffffffff1673ffffffffffffffffffffffffffffffffffffffff166370a08231306040518263ffffffff1660e01b8152600401610bba9190611018565b602060405180830381865afa158015610bd7573d6000803e3d6000fd5b505050506040513d601f19601f82011682018060405250810190610bfb91906113a7565b905090565b600760009054906101000a900473ffffffffffffffffffffffffffffffffffffffff1681565b60004442600254604051602001610c3f939291906118cd565b6040516020818303038152906040528051906020012060001c905090565b600060025411610ca2576040517f08c379a0000000000000000000000000000000000000000000000000000000008152600401610c99906112a6565b60405180910390fd5b600360009054906101000a900460ff1615610cf2576040517f08c379a0000000000000000000000000000000000000000000000000000000008152600401610ce990611312565b60405180910390fd5b6000600254610cff610c26565b610d099190611361565b90506001600082815260200190815260200160002060009054906101000a900473ffffffffffffffffffffffffffffffffffffffff16600360016101000a81548173ffffffffffffffffffffffffffffffffffffffff021916908373ffffffffffffffffffffffffffffffffffffffff160217905550600760009054906101000a900473ffffffffffffffffffffffffffffffffffffffff1673ffffffffffffffffffffffffffffffffffffffff1663a9059cbb600360019054906101000a900473ffffffffffffffffffffffffffffffffffffffff16600760009054906101000a900473ffffffffffffffffffffffffffffffffffffffff1673ffffffffffffffffffffffffffffffffffffffff166370a08231306040518263ffffffff1660e01b8152600401610e3b9190611018565b602060405180830381865afa158015610e58573d6000803e3d6000fd5b505050506040513d601f19601f82011682018060405250810190610e7c91906113a7565b6040518363ffffffff1660e01b8152600401610e999291906113d4565b6020604051808303816000875af1158015610eb8573d6000803e3d6000fd5b505050506040513d601f19601f82011682018060405250810190610edc9190611429565b610f1b576040517f08c379a0000000000000000000000000000000000000000000000000000000008152600401610f12906114a2565b60405180910390fd5b6001600360006101000a81548160ff02191690831515021790555050565b60008115159050919050565b610f4e81610f39565b82525050565b6000602082019050610f696000830184610f45565b92915050565b600080fd5b6000819050919050565b610f8781610f74565b8114610f9257600080fd5b50565b600081359050610fa481610f7e565b92915050565b600060208284031215610fc057610fbf610f6f565b5b6000610fce84828501610f95565b91505092915050565b600073ffffffffffffffffffffffffffffffffffffffff82169050919050565b600061100282610fd7565b9050919050565b61101281610ff7565b82525050565b600060208201905061102d6000830184611009565b92915050565b61103c81610f74565b82525050565b60006020820190506110576000830184611033565b92915050565b600081519050919050565b600082825260208201905092915050565b6000819050602082019050919050565b61109281610ff7565b82525050565b60006110a48383611089565b60208301905092915050565b6000602082019050919050565b60006110c88261105d565b6110d28185611068565b93506110dd83611079565b8060005b8381101561110e5781516110f58882611098565b9750611100836110b0565b9250506001810190506110e1565b5085935050505092915050565b6000602082019050818103600083015261113581846110bd565b905092915050565b6000819050919050565b600061116261115d61115884610fd7565b61113d565b610fd7565b9050919050565b600061117482611147565b9050919050565b600061118682611169565b9050919050565b6111968161117b565b82525050565b60006020820190506111b1600083018461118d565b92915050565b600082825260208201905092915050565b7f4170656e6173206f20676572656e746520706f6465206368616d61722065737460008201527f612066756e63616f000000000000000000000000000000000000000000000000602082015250565b60006112246028836111b7565b915061122f826111c8565b604082019050919050565b6000602082019050818103600083015261125381611217565b9050919050565b7f4e656e68756d6120656e7472616461206e612072696661000000000000000000600082015250565b60006112906017836111b7565b915061129b8261125a565b602082019050919050565b600060208201905081810360008301526112bf81611283565b9050919050565b7f536f727465696f206a61207265616c697a61646f000000000000000000000000600082015250565b60006112fc6014836111b7565b9150611307826112c6565b602082019050919050565b6000602082019050818103600083015261132b816112ef565b9050919050565b7f4e487b7100000000000000000000000000000000000000000000000000000000600052601260045260246000fd5b600061136c82610f74565b915061137783610f74565b92508261138757611386611332565b5b828206905092915050565b6000815190506113a181610f7e565b92915050565b6000602082840312156113bd576113bc610f6f565b5b60006113cb84828501611392565b91505092915050565b60006040820190506113e96000830185611009565b6113f66020830184611033565b9392505050565b61140681610f39565b811461141157600080fd5b50565b600081519050611423816113fd565b92915050565b60006020828403121561143f5761143e610f6f565b5b600061144d84828501611414565b91505092915050565b7f5472616e73666572656e63696120646f207072656d696f2066616c686f750000600082015250565b600061148c601e836111b7565b915061149782611456565b602082019050919050565b600060208201905081810360008301526114bb8161147f565b9050919050565b7f4f20736f727465696f206a6120666f69207265616c697a61646f000000000000600082015250565b60006114f8601a836111b7565b9150611503826114c2565b602082019050919050565b60006020820190508181036000830152611527816114eb565b9050919050565b7f4e616f20686120656e74726164617320646973706f6e69766569730000000000600082015250565b6000611564601b836111b7565b915061156f8261152e565b602082019050919050565b6000602082019050818103600083015261159381611557565b9050919050565b7f5175616e746964616465206465207269666173206465766520736572206d616960008201527f6f7220717565207a65726f000000000000000000000000000000000000000000602082015250565b60006115f6602b836111b7565b91506116018261159a565b604082019050919050565b60006020820190508181036000830152611625816115e9565b9050919050565b7f4e487b7100000000000000000000000000000000000000000000000000000000600052601160045260246000fd5b600061166682610f74565b915061167183610f74565b925082820261167f81610f74565b915082820484148315176116965761169561162c565b5b5092915050565b7f53616c646f20696e737566696369656e7465207061726120656e74726172206e60008201527f6120726966610000000000000000000000000000000000000000000000000000602082015250565b60006116f96026836111b7565b91506117048261169d565b604082019050919050565b60006020820190508181036000830152611728816116ec565b9050919050565b60006060820190506117446000830186611009565b6117516020830185611009565b61175e6040830184611033565b949350505050565b7f5472616e73666572656e63696120646520746f6b656e732066616c686f750000600082015250565b600061179c601e836111b7565b91506117a782611766565b602082019050919050565b600060208201905081810360008301526117cb8161178f565b9050919050565b60006117dd82610f74565b91507fffffffffffffffffffffffffffffffffffffffffffffffffffffffffffffffff820361180f5761180e61162c565b5b600182019050919050565b600061182582610f74565b915061183083610f74565b92508282039050818111156118485761184761162c565b5b92915050565b7f4e487b7100000000000000000000000000000000000000000000000000000000600052604160045260246000fd5b7f4e487b7100000000000000000000000000000000000000000000000000000000600052603260045260246000fd5b6000819050919050565b6118c76118c282610f74565b6118ac565b82525050565b60006118d982866118b6565b6020820191506118e982856118b6565b6020820191506118f982846118b6565b60208201915081905094935050505056fea2646970667358221220746fbf36e454ff664156d4cae130bfea502ce7a8a8b65971dc6b348d2a848ad264736f6c63430008180033",
  "linkReferences": {},
  "deployedLinkReferences": {}
}